:0400000080315A28C9
:100008007E14803120007F08F9000B198B1E4B28C5
:10001800FA3095020B110130B3070030B43D0030BF
:10002800B53D0030B63DFF303305F500FF303405EF
:10003800F6007F303505F70000303605F80000304F
:100048007802031D312849307702031D31283E30DC
:100058007602031D312800307502031C4B2800303E
:10006800F5003E30F6004930F7000030F80075081A
:10007800B3027608B43B7708B53B7808B63B003046
:10008800B3060030B4068030B5060030B60621004D
:10009800911D55282000911D552822008E1382316C
:1000A8008E2279082000FF007E10090080315C282C
:1000B800FA01FB01B301B401B501B601B701B801FA
:1000C80079308400803085007030860021308700C8
:1000D8000030FF0080308231C02280318231E2223C
:1000E800FC007E1020008031F928003401340234ED
:1000F80003340434053406340734083409340A3424
:100108000B340C340D340E340F34103411341234D3
:1001180013341434153416341734183419341A3483
:100128001B341C341D341E341F3420342134223433
:1001380023342434253426342734283429342A34E3
:100148002B342C342D342E342F3430343134323493
:1001580033343434353436343734383439343A3443
:100168003B343C343D343E343F34403441344234F3
:1001780043344434453446344734483449344A34A3
:100188004B344C344D344E344F3450345134523453
:1001980053345434553456345734583459345A3403
:1001A8005B345C345D345E345F34603461346234B3
:1001B80063346434653466346734683469346A3463
:1001C8006B346C346D346E346F3470347134723413
:1001D80073347434753476347734783479347A34C3
:1001E8007B347C347D347E347F3400302000A3009F
:1001F8000030A200FA30A1000030A000813169214E
:10020800803120002308B2002208B1002108B00084
:100218002008AF0021009512151215178B16951599
:100228008231CC22803121000E138E138231D522E7
:10023800803129302000AE009630AD00A630AC00E9
:10024800AC0B2429AD0B2429AE0B24298B170B17D3
:1002580022008E1720003208A3003108A2003008BF
:10026800A1002F08A0008131C3218031200021087E
:10027800200403192E290030A3000030A2003E30CC
:10028800A1008030A000813169218031200023083D
:10029800B2002208B1002108B0002008AF002200F7
:1002A8000E0E2000AC00AC0C2C0C0139AC00013057
:1002B800AC06AC0EAC0DAC0D22000E0820002C06CE
:1002C800BF392C0622008E002E2900302000AB00FA
:1002D8000030AA000030A9000030A8002008330729
:1002E800A4002108343DA5002208353DA6002308B6
:1002F800363DA7002708AB002608AA002508A90054
:100308002408A800FF302805A400FF302905A5000F
:100318007F302A05A60000302B05A70000302702F1
:10032800031DA02949302602031DA0293E302502BD
:10033800031DA02901302402031CBA290030A4009F
:100348003E30A5004930A6000030A7002408A802C6
:100358002508A93B2608AA3B2708AB3B0030A8067E
:100368000030A9068030AA060030AB062B08A3008F
:100378002A08A2002908A1002808A0000800FF30C8
:1003880020003305A400FF303405A5007F30350573
:10039800A60000303605A700FF302005A800FF3072
:1003A8002105A9007F302205AA0000302305AB00F3
:1003B80027082B02031DEA2926082A02031DEA2919
:1003C80025082902031DEA29240828020318192AE6
:1003D80000303305A40000303405A5008030350511
:1003E800A60000303605A70000302005A800003020
:1003F8002105A90080302205AA0000302305AB00A2
:1004080027082B06031D122A26082A06031D122A6E
:1004180025082906031D122A24082806031D192A5F
:100428000130A0000030A1000800A001A1010800CF
:10043800F200592AFB01FB0A08007C08F00070084A
:10044800FA00442A7A08703EF000F1012130F13DAB
:1004580070088600710887007C0881000130F00070
:100468007008FA0780307A02031C442AFA01442AE9
:100478007B08003A0319262A013A0319212A262A59
:10048800FB0108007A08703E860087012130873D0D
:100498000108240091000130F0007008FA0780304C
:1004A8007A02031C0800FA0108007208003A0319CE
:1004B8001E2A013A0319462A033A03193C2A013A2B
:1004C8000319672A672A080022008C01FF302100DF
:1004D8008C00BF3023008C0024008C0122008D0189
:1004E800FF3021008D003F3023008D0024008D0156
:1004F800183022008E00FF3021008E0024008E016B
:100508000830210090002400900121009517220056
:100518009D0108005530F3007308F4002000911184
:1005280024001108F3007308F400141DA22A941A79
:10053800161FA02A0330AB2A0130AB2A941AA62A28
:100548000030AB2A7408F3007308FC0002308231D3
:100558001C22240015160800240094012E30950052
:10056800013096009701FE309300C03092002000C1
:100578009111210091150800FE0012001E000130A3
:10058800FE020030FF3B7F087E0403190034C12AB5
:100598008231DC2282318231682282318231B0227A
:1005A8000800FC3021009905783099049917080053
:0E05B8007830210099009A019801080055340E
:020000040001F9
:04000E00E4E9FFFE24
:00000001FF
