:0400000080315528CE
:100008007E14803120007F08F4000B198B1E4B28CA
:10001800FA3095020B110130F5070030F63D00303B
:10002800F73D0030F83DFF307505F000FF307605EC
:10003800F1007F307705F20000307805F3000030DA
:100048007302031D312849307202031D31283E30E6
:100058007102031D312800307002031C4B28003048
:10006800F0003E30F1004930F2000030F300700833
:10007800F5027108F63B7208F73B7308F83B00304D
:10008800F5060030F6068030F7060030F806911DB8
:100098005028911122008E1374082000FF007E1052
:1000A800090080315728F501F601F701F801B3017D
:1000B800B4017E1020008031612800302000A300A8
:1000C8000030A200FA30A1000030A0008031F420F6
:1000D800803120002308B2002208B1002108B000B6
:1000E8002008AF0021009512151215178B169515CB
:1000F80000308C0500308D050E08003918388E0048
:10010800003022008C0500308D0500308E051D1250
:100118009D118131A721803124009513151395165F
:1001280015121508F0390C38950096131617161481
:100138001713971617169711171197101710930181
:10014800120800396038920029302000AE0096303D
:10015800AD00A630AC00AC0BAF28AD0BAF28AE0B92
:10016800AF280B168B1722008E1720003208A30029
:100178003108A2003008A1002F08A00081314E21CB
:1001880080312000210820040319B9280030A30079
:100198000030A2003E30A1008030A0008031F42061
:1001A800803120002308B2002208B1002108B000E5
:1001B8002008AF0022000E0E2000AC00AC0C2C0C66
:1001C8000139AC000130AC06AC0EAC0DAC0D220010
:1001D8000E0820002C06BF392C0622008E00B928F4
:1001E80000302000AB000030AA000030A900003029
:1001F800A80020087507A4002108763DA50022085C
:10020800773DA6002308783DA7002708AB002608FD
:10021800AA002508A9002408A800FF302805A40082
:10022800FF302905A5007F302A05A60000302B05E0
:10023800A70000302702031D2B2949302602031D81
:100248002B293E302502031D2B2901302402031CD3
:1002580045290030A4003E30A5004930A6000030F2
:10026800A7002408A8022508A93B2608AA3B2708B6
:10027800AB3B0030A8060030A9068030AA06003043
:10028800AB062B08A3002A08A2002908A100280809
:10029800A0000800FF3075052000A400FF30760597
:1002A800A5007F307705A60000307805A700FF304D
:1002B8002005A800FF302105A9007F302205AA00EB
:1002C80000302305AB0027082B02031D75292608DB
:1002D8002A02031D752925082902031D75292408EA
:1002E80028020318A42900307505A40000307605FB
:1002F800A50080307705A60000307805A7000030FB
:100308002005A80000302105A90080302205AA0098
:1003180000302305AB0027082B06031D9D2926085E
:100328002A06031D9D2925082906031D9D29240841
:100338002806031DA4290130A0000030A1000800F0
:10034800A001A1010800FC3021009905783099042A
:0403580099170800E9
:020000040001F9
:04000E00E4E9FFFE24
:00000001FF
